:100000000C946A040C94F10A0C94F60A0C94000007
:100010000C94380B0C9400000C9400000C9400001D
:100020000C941D0B0C94F90A0C9400000C94000025
:100030000C9400000C9400000C9400000C94000040
:100040000C9400000C9400000C9400000C94000030
:100050000C94000000000000000000000200013CC1
:100060004242242492FF92240080E0203A23130885
:10007000646236495522500005030000001C2241ED
:10008000000041221C0014083E081408083E08081D
:1000900000503000000808080808006060000020D8
:1000A00010080402000000000000005F00000007CC
:1000B000000700147F147F14242A7F2A12231308B8
:1000C000646236495522500005030000001C22419D
:1000D000000041221C0014083E081408083E0808CD
:1000E0000050300000080808080800606000002088
:1000F00010080402000000000081000000810007D9
:10010000000700147F147F14242A7F2A1223130867
:10011000646236495522500005030000001C22414C
:10012000000041221C0014083E081408083E08087C
:100130000050300000080808080800606000002037
:10014000100804023E5149453E00427F4000426192
:100150005149462141454B311814127F102745451E
:1001600045393C4A49493001710905033649494935
:1001700036064949291E0036360000005636000072
:10018000081422410014141414140041221408020B
:1001900001510906324979413E7E1111117E7F4994
:1001A0004949363E414141227F4141221C7F494914
:1001B00049417F090909013E4149497A7F080808F8
:1001C0007F00417F41002040413F017F08142241D0
:1001D0007F404040407F020C027F7F0408107F3E3A
:1001E0004141413E7F090909063E4151215E7F0997
:1001F000192946464949493101017F01013F4040E3
:10020000403F1F2040201F3F4038403F63140814E8
:100210006307087008076151494543007F41410069
:1002200002040810200041417F0004020102044042
:1002300040404040000102040020545454787F485C
:100240004444383844444420384444487F38545463
:100250005418087E0901020C5252523E7F080404D1
:100260007800447D40002040443D007F1028440039
:1002700000417F40007C041804787C08040478382E
:10028000444444387C14141408081414187C7C0862
:100290000404084854545420043F4440203C404047
:1002A000207C1C2040201C3C4030403C442810282E
:1002B000440C5050503C4464544C440008364100B7
:1002C00000007F0000004136080010080810087880
:1002D00046414678000000000000005F0000000773
:1002E000000700147F147F14242A7F2A1223130886
:1002F000646236495522500005030000001C22416B
:10030000000041221C0014083E081408083E08089A
:100310000050300000080808080800606000002055
:1003200010080402000000000000005F0000000749
:10033000000700147F147F14242A7F2A1223130835
:10034000646236495522500005030000001C22411A
:10035000000041221C0014083E081408083E08084A
:100360000050300000080808080800606000002005
:1003700010080402000000000000005F00000007F9
:10038000000700147F147F14242A7F2A12231308E5
:10039000646236495522500005030000001C2241CA
:1003A000000041221C0014083E081408083E0808FA
:1003B00000503000000808080808006060000020B5
:1003C000100804023E5149453E00427F4000426110
:1003D0005149462141454B311814127F102745459C
:1003E00045393C4A494930017109050336494949B3
:1003F00036064949291E00363600000056360000F0
:100400000814224100141414141400412214080288
:10041000015109067E1111117E7F494949317F49F9
:100420004949367F01010103702927217F7F49490E
:10043000494177087F087741414149767F10080498
:100440007F7F1009047F7F0814224120413F017FF4
:100450007F020C027F7F0808087F3E4141413E7FBA
:100460000101017F7F090909063E41414122010145
:100470007F010147281008071E217F211E631408F1
:1004800014633F2020205F070808087F7F407F40DB
:100490007F3F203F205F017F4848307F4830007F0A
:1004A000007F484830414141493E7F083E413E4639
:1004B0002919097F20545454783C4A4A49317C54C4
:1004C0005428007C0404040C722A26227E385454DA
:1004D00054186C107C106C44445454387C20100820
:1004E0007C7C2112097C7C1028440020443C047C44
:1004F0007C0810087C7C1010107C38444444387C04
:100500000404047C7C141414083844444420040477
:100510007C0404442810080408147E14084428109D
:1005200028443C40407C400C1010107C7C407C40B7
:100530007C3C203C207C047C5050207C5020007C63
:10054000007C50502028444454387C1038443848AB
:100550005434147C00000000000000000000000083
:10056000000000000000000000000000000000008B
:10057000000000000000000000000000000000007B
:10058000000000000000000000000000000000006B
:10059000000000000000000000000000000000005B
:1005A000000000000000000000FC040404FC080837
:1005B000000000000000000000000000000000003B
:1005C000000000000000000000000000000000002B
:1005D000000000000000000000000000000000001B
:1005E000000000000000000000000000000000000B
:1005F0000000000000FC0404FC20200000FF0000BC
:1006000000FF0200000000000000000000000000E9
:1006100000000000000000000000000000000000DA
:1006200000000000000000000000000000000000CA
:1006300000000000000000000000000000000000BA
:10064000000000000000404040FF0000FF040400E4
:1006500000FF000000FF810100000000000000001A
:10066000000000000000000000000000000000008A
:10067000000000000000000000000000000000007A
:10068000000000000000000000000000000000006A
:1006900000000000000000000000101092FF0000A9
:1006A000FF000000007F4040407F1010000000006D
:1006B000000000000000000000000000000000003A
:1006C000000000000000000000000000000000002A
:1006D000000000000000000000000000000000001A
:1006E0000000000000000000000000000000040402
:1006F00024FF0000FF00000080FFF9F9F9FF9022BD
:100700003C000000000000000000000000000000AD
:1007100000000000000000000000000000000000D9
:1007200000000000000000000000000000000000C9
:1007300000000000000000000000000000000000B9
:1007400000001C3E7FF781B7FD7F3E1CFFFFFFFFCF
:10075000FFFFFFFFFFFFFFFFFFFFFFFFFFFFFF8127
:10076000FD91FD81B9C5C5B98185FD8581DD81FF1B
:1007700000FE829393928282828292BB9382FE00D9
:10078000000000FF81DD81FF00492A1C7F1C2A49EF
:100790000000000000000000000000000000000059
:1007A000000000000000007E0418207E003C424251
:1007B000423C007E12324C007E0408047E00781415
:1007C000121478007E40404000000000000000004D
:1007D0000000007E08087E007A003C425234007E11
:1007E00008087E00005E000000000000000000001D
:1007F000000000000000007E404040003C424242B9
:100800003C007E2010207E00005E00000000000002
:1008100000006400C80090012003F8FFFCFFFEFF09
:10082000FFFF1027E80364000A0001000010000128
:1008300010000100000001000200000001000200A1
:1008400003000400030302502533750025750025BD
:1008500033690200546865726D6F002532692E2578
:10086000695600566F6C746D657465720025336946
:10087000004B6D2F680053706565646F00C5E1E043
:10088000F8E8F23A00256900E4E0F2F7E8EAE0006F
:10089000EFF0EEE5E1E0EDEDEE3A0025692E256999
:1008A0000072706D2F6D00546163686F000001006D
:1008B0000200340801007103360801007203380891
:1008C000070090033A080100A20342080400040054
:1008D00044080000F894EE27ECBBF1E0FBBFEBBF4F
:1008E000E5BFF8E1F1BDE1BD8DE0A2E0BB27ED93EE
:1008F0008A95E9F780E094E0A0E6ED930197E9F7A7
:10090000EEEAF8E085919591009761F0A591B59197
:1009100005901590BF01F00105900D920197E1F748
:10092000FB01F0CFEFE5EDBFE4E0EEBFC0E6D1E0C4
:100930000C94390BAA93C398E881E03011F0C29A65
:1009400001C0C298E981EFB9EEB1E078E038E1F793
:10095000C39A229608950E94180E083FE1E01E07F0
:100960004CF40E94270EEC91EA93A1E0E3DF0F5FC5
:100970001F4FF3CFF8C31A930A9300E010E0083F2B
:10098000E1E01E073CF40E94270EE0E0EC930F5FCD
:100990001F4FF5CFE0DFE7C3C49ABF9ABD9ABB9A59
:1009A000BA9ABC9A0E942C0E0E94AC0FE0E5EDB9F9
:1009B000C498AAE00E942F0EC49AC39AE1E20E9452
:1009C000320EE52DEC5F0E94320EE42DE05F0E94B6
:1009D000320EE72DE0580E94320EA0E020FCA1E08C
:1009E000EA2FEE0FEE0FEE0FE0620E2EA0E021FCDC
:1009F000A1E0EA2FEE0FEE0FE0290E94320EE62D65
:100A0000EE0FE629E570E8600E94320EB4DF08952B
:100A1000AA93A881A03850F4E1E20E94320EE88146
:100A2000E0680E94320EE0E20E94320E21960895A4
:100A3000BA93AA930E94180E083FE1E01E0778F4CB
:100A4000F801E958FE4F0F01F801AA81BB81EA0FB6
:100A5000FB1FE491D001EC930F5F1F4FEDCF198185
:100A6000088105C3AA930E947C12AE81A53590F53A
:100A7000AD81A13378F50E94360EA4E5B0E00E9466
:100A8000DC11DF01EE810E943D0E8F010E94360EC7
:100A9000EE0FEE0FEE0FAD81AE1B3A2F0E94270E28
:100AA0002C91EC81E03029F40E94410EE0952E2338
:100AB0000DC0AC81A13021F40E94410E2E2B06C046
:100AC000AC81A23019F40E94410E2E27F801E9589A
:100AD000FE4F20830E94831227960895AA9324979D
:100AE000E0E0E883E983EA83EB830E947A1200E086
:100AF00010E020E030E040E050E0A989BA89A53557
:100B0000E0E0BE0774F4AD85BE85A535E0E0BE0724
:100B100044F4AF85B889D19724F4AB85BC85D197CF
:100B20000CF072C0AF85B889EB85FC85EA1BFB0B26
:100B30008F01A989BA89ED85FE85EA1BFB0B9F0110
:100B400011233AF4F8010E9491118F01EFEFFFEFAA
:100B500002C0E1E0F0E0E887F98733233AF4F901D5
:100B60000E9491119F014FEF5FEF02C041E050E002
:100B7000000F111F220F331F0E94460E021713078A
:100B800014F5F901F595E795DF01F801EA1BFB0B78
:100B9000EE83FF83ED85FE85A989BA89EA17FB07F5
:100BA00089F0AF81AA2342F00E944D0EEE81FF81B1
:100BB000E21BF30BEE83FF830E94560EF8010E94A6
:100BC0005E0EE8CF21C0F801F595E795DF01F90148
:100BD000EA1BFB0BEE83FF83EB85FC85AF85B889B1
:100BE000EA17FB0789F0AF81AA2342F00E94560E54
:100BF000EE81FF81E01BF10BEE83FF830E944D0E1F
:100C0000F9010E945E0EE8CF0E948112639608955A
:100C1000AA930E947C12AC81A53608F03FC00C80DC
:100C20001124A985BA85ED81FE81EA1BFB0BD00159
:100C30000E94DC11DF01E4E6F0E00E94F9111E2FB2
:100C400030E0311780F40E94650EAF81B8850E94B4
:100C50006C0E0E94650EAB85BC850E946C0EA1E0F7
:100C60003DDF3F5FEECFA985ED81EA1B0E2F302FD0
:100C70001317A0F4EB85FC85FA93EA93AF81B8854E
:100C80000E94710EEB85FC85FA93EA93AB85BC85D7
:100C90000E94710EA0E022DF3150EACF0E94831241
:100CA0002D960895AA93A981AF3018F4A881A73092
:100CB00008F012C0E881F0E03197A4E5B0E00E94AE
:100CC000DC11BF01E981F0E03197A6E0B0E00E94BD
:100CD000DC11E60FF71F4F015BC41A9310E01E30C2
:100CE00030F40E94750EA0E0A0831F5FF8CF199129
:100CF0000895BA93AA931A9310E0EF81F8850E94A1
:100D00007A0ED8F40E947F0EBF01EB81FC813097F0
:100D100049F00E94860EAD81BE81EA0FFB1FE4916F
:100D2000E09507C00E94860EAD81BE81EA0FFB1FD1
:100D3000E491DB01EC931F5FE0CFE981FA8130970A
:100D400021F00E947F0EA0E0A08318812B960895C9
:100D50000E948F0EFA93EA93E5E0F0E0FA93EA93AB
:100D6000E4E5F0E00E94940E0E942C0EC2DF10C455
:100D7000AA931A93AA81AF3018F0A981A73008F47A
:100D800003C01881239608950E949B0EEA81F0E02B
:100D9000AFE0B0E00E94A20E64F40E94750EE08104
:100DA000E03029F00E94750EA081B0E0D1DF1F5F16
:100DB000EDCF93DF3AC50E94A70E00E030E020E0BF
:100DC00010E0153010F00C943707EC81FD81A5E0A0
:100DD000B0E00E94DC11DF01E12F0E943D0EEC5AD1
:100DE000FF4F2491E22FE170A3E0EA02302DE22FC1
:100DF000E270A6E0EA02F0013E2BE22FE470ACE0E4
:100E0000EA02F0013E2BE22FE870A8E1EA02F001CD
:100E10003E2B22952F70E22FE170A3E0EA02002D15
:100E2000E22FE270A6E0EA02F0010E2BE22FE4705E
:100E3000ACE0EA02F0010E2BE22FE870A8E1EA0232
:100E4000F0010E2BF401E958FE4F3083F401E8580D
:100E5000FE4F3083F401E553FE4F0083F401E45369
:100E6000FE4F0083F40132964F011F5FAACF0E940C
:100E70007F0EA0E0A0830E947F0EA0E0A0838AC422
:100E8000AA931A93AA81AE3018F0A981A63008F46B
:100E900001C0CBC40E949B0EEA81F0E0AEE0B0E05E
:100EA0000E94A20E64F40E94750EE081E03029F0E9
:100EB0000E94750EA0810E94AC0E1F5FEDCF0DDF6A
:100EC000B4C4BA93AA932897A885B985A739E0E056
:100ED000BE0724F0E6E9F0E0E887F987A985AA23B0
:100EE0001AF4E0E0E887E9870E94AF0EE8E4F8E052
:100EF000FA93EA93EC85FD850E94B40EECE0EA9348
:100F0000A1E00E94BD0EECE4F8E0FA93EA93EE85CE
:100F1000FF850E94C00EE1E0EA93A1E029DFA885E9
:100F2000B9850E94AA110E94C90EE6E9F0E060E0CE
:100F300070E00E9423120E94F110EC83FD836E8307
:100F40007F83EEE4F0E00E94D20EEFE4F0E0FA934B
:100F5000EA93E7E2F0E0FA93EA93EC85FD856E858B
:100F60007F850E94B810AE2F53DEAA85BB858827E7
:100F700099270E94C90EE7E3F0E060E070E00E946C
:100F800023120E94F1100E946512E2E0F0E00E943C
:100F9000D20E0E94D90EE5E2F0E0FA93EA93E885DA
:100FA000F9856A857B850E94B810AE2F31DE97C225
:100FB0001A930A93E0EFEA93A5E7B3E00E940610C4
:100FC000E093740300E010E0E0917403D801F0E0D6
:100FD000AE17BF0790F4A9E0A09FF001A19FF00D0C
:100FE000EB58FC4FFA93EA93E2EEEA93EDE7EA93CB
:100FF000A0E01ED40F5F1F4FE7CFB5C00E948F0E39
:10100000E330A0E0FA0731F4E09172030E94DE0EB3
:101010006F0104C0E230A0E0FA0731F4E0917103FF
:101020000E94DE0E5F0104C0E130A0E0FA0779F40F
:10103000E0917303A9E0EA9FF001EB58FC4FDF0158
:10104000ADD3AFE6B3E00E94BA10ED93FC93A0C21B
:10105000BA93AA93EA81FB81FA93EA930E94E90E7C
:10106000FA93EA93EE81FF810E94F00E42DE24960D
:101070000895E3E00E94F50E0E94D90E0E94E90E49
:101080000E94940E0E94F90E0E94E90E0E94940E96
:101090000E94F90E0E94E90E0E94940EA0E0B0E0BA
:1010A00028DE0895BA93AA93A881B981A436E0E016
:1010B000BE0724F0E3E6F0E0E883F983A881B98174
:1010C000AE3CEFEFBE0724F4EEECFFEFE883F983CC
:1010D000E881F9815DC20E948F0E662777270E9402
:1010E000F110ADE2B6E286E19EE30E941F11E093AB
:1010F0009A03F0939B0360939C0370939D0348C2F3
:101100001A930A930E94FE0EE238A0E0FA0714F444
:1011100009E010E00E94FE0EE139A0E0FA0724F495
:10112000E238A0E0FA070CF402C005E010E00E94EB
:10113000FE0EE139A0E0FA0714F007E010E0E5E068
:10114000EA93A5E0AFDD1A930A930E942C0E80DF8C
:10115000E8E0EA93A5E0A6DDF8013196FA93EA9378
:101160000E942C0E75DF0991199108950E94A70E17
:10117000EC81FD813097A1F5D60194DF8F01D50177
:1011800091DF9F01E3E0EA93A2E08CDDA3E00E94FF
:10119000AC0EE3E0EA93A4E085DDA4E00E94AC0E8F
:1011A0000E94AF0EEFE4F8E0FA93EA93E0916F0348
:1011B000F09170030E94B40EE5E0EA93A2E00E9471
:1011C000090FEFE4F8E0FA93EA93F9010E94B40EF4
:1011D000E5E0EA93A4E00E94090FE4E5F8E0B5C079
:1011E000E130A0E0FA0749F50E94AF0EEBE5F8E028
:1011F000FA93EA930E94FE0EDF01EAE0F0E00E941B
:10120000F9110E94A5110E946A120E94FE0EDF01D0
:10121000EAE0F0E00E942B120E94A5110E940C0F40
:10122000E3E0EA93A3E02CDE6BDF0E94AF0EE3E67F
:10123000F8E00E94130FE3E08FC0E230A0E0FA076D
:10124000F1F40E94AF0EEDE6F8E0FA93EA93E09134
:10125000A403F091A5030E94C00EE4E0EA93A3E08A
:101260000E94090FE1E7F8E00E94130FE6E00E94F8
:101270001A0FE6E7F8E00E94130FE4E06DC0E330D8
:10128000A0E0FA07A9F50E94AF0EEDE7F8E00E9492
:10129000130FE5E0EA93A2E00E94BD0E0E941D0F2D
:1012A000FF27662777270E946A1284E00E94CB0DF1
:1012B0002896E8E0EA93A3E00E94BD0EE8E8F8E093
:1012C0000E94130FE5E0EA93A4E00E94BD0EE0E95E
:1012D000F8E0FA93EA93E09174030E94240FE3E0AC
:1012E0000E941A0F0E941D0F0E94240FE8E034C0D4
:1012F000E430A0E0FA0799F50E94AF0EEBE9F8E0C0
:10130000FA93EA930E942C0F0E94E6116627772732
:101310000E946A120E942C0F0E942812DF01E4E64C
:10132000F0E00E94E611662777270E940C0FE5E0A7
:10133000EA93A3E00E94090FE1EAF8E00E94130F8C
:10134000E5E00E941A0FE7EAF8E0FA93EA9380E0FA
:101350000E94CB0D2496E5E0EA93A6E009DD1AC2CF
:101360000E948F0EE0939803F093990304DBA4E5A9
:10137000B5E05EDB0DC17DDEA0916F03B09170031F
:10138000A436E0E0BE0744F0E3E00E94F50EE1E0A1
:10139000F0E00E94F00E5CDEE3E0F0E0EA15FB0511
:1013A00044F0E9E00E94F50EE3E0F0E00E94F00E68
:1013B0004FDE0E94330FE0E0F0E068EC72E40E9440
:1013C0006D1109F010F40C94EE090E94330FE0E067
:1013D000F0E064E173E40E946D1140F0E6E00E94E9
:1013E000F50EE2E0F0E00E94F00E32DE0895EBE24E
:1013F000F0E0FA93EA93A0916F03B091700361DD7E
:10140000A0919803B0919903B1DEB5DFA4DA0895F5
:10141000E091A003F091A103A0E9B3E0EE0FFF1F5C
:10142000AE0FBF1F0E945A12DF019ADFA0EAB3E09D
:101430000E943C0FE091A203F091A3033197A09189
:10144000A003B091A103EA17FB0728F4E0E0E093C2
:10145000A003E093A1030895BA93AA9322970E9450
:101460007A12F894ECB5F0E0EE83FF834DB5552782
:101470007894F42FE0E0AE81BF81EA0FFB1F9F015B
:10148000EA85FB853097D9F0AA85BB850E945A1260
:10149000AFEFBFEF0E94B4110F01A885B9850E947C
:1014A0005A12DF01F001EA1BFB0BE20FF31F8F0161
:1014B000AA85BB85E0E0F0E0ED93FC9309C0A88528
:1014C000B9850E945A12DF01F901EA1BFB0B8F015B
:1014D000A885B9852D933C93F8010E9481122C9622
:1014E00008950E948F0E309739F0A091A403B09117
:1014F000A5030E94761208F005C0A8EAB3E00E9496
:101500003C0F46C0E8EAF3E0FA93EA93ACEAB3E0B2
:101510000E94420FA4E2B0E080E090E00E94E1115E
:10152000DF01CB01EAE0F0E060E070E00E9423120E
:10153000E093A403F093A5032BC00E948F0E309775
:1015400039F0A091A603B091A7030E94761208F08B
:1015500005C0AAEAB3E00E943C0F1AC0EAEAF3E031
:10156000FA93EA93AEEAB3E00E94420FACE3B0E034
:1015700080E090E00E94E111DF01CB01E4E0F0E0C7
:1015800060E070E00E942312E093A603F093A703AB
:1015900022960895B69908C0A4E10E942F0EAEE9E4
:1015A000B3E00E943C0F0DC0A0919E03B0919F0339
:1015B0000E94761230F42CDFE0E0E0939E03E0938B
:1015C0009F030895AA93E881E06CE7B98BE18A95BF
:1015D000F1F7369A349BFECF349AE4B1F5B12196F7
:1015E00008950E944D0FB0E07CDF34C00E944D0F83
:1015F0002FC00E945C0FA2EBB3E00E943C0FA091B1
:10160000B203B091B3031F97B9F4E0E0E093B203E3
:10161000E093B303ECDEA0EBB3E00E943C0FA0919B
:10162000B003B091B1031A9738F0E0E0E093B00353
:10163000E093B1030E946A0F0DC00E945C0FA99B4A
:1016400002C0A99801C0A99A0E942C0E4ADFA1E00D
:10165000B0E073DFE991EFBFF991E991B991A991F8
:101660009991899179916991F990199009901895BA
:101670001895E0E0EBBBEABBE8BBE0E4E7BBE0E0E9
:10168000E5BBE2E0E4BBE0E0E2BBE1BBE5E0E3BFF9
:10169000E0E0E2BFECBFEFBDE3E0EEBDE0E0EDBDBA
:1016A000ECBDE7BDE6BDEBBDEABDE9BDE8BDE2BD11
:1016B000E4E0E5BDE0E0E4BDE3BDEBB7E06CEBBF2B
:1016C000EEE0E5BFE0E0E4BFE0ECEABFE5E4E9BF5F
:1016D000E0E0EAB9E0E8E8B9E0E0E0BFE0ECE7B973
:1016E000E3E8E6B9E0E0EDB9E6BF0E94B60F54D9F1
:1016F000A3E28ED95DDC0E946A0FA4E0B0E030DE88
:10170000789448DFFECFFFCFBA93AA931A930E9432
:10171000B60FE03011F4E0E088C0E981FA8130973B
:1017200081F0A5E50E94FC0F10E0A981BA81ED913E
:10173000A983BA83AE2F0E94FC0F1F5F1830A8F355
:1017400003C0ACEC0E94FC0FE1E06FC00E94A70E4A
:10175000AC81BD81D9DFE03011F4E0E01BC0AEEB1D
:101760000E94FC0F10E020E631E03F932F932F5FA3
:101770003F4F0E94F70FAF91BF91EC931F5F19305D
:10178000A0F3E0E6F1E0FA93EA93A9E00E94751075
:101790000E94AF110E94831226960895BA93AA93CD
:1017A0001A93A981BA81D2DFE03019F40E94750F33
:1017B0003CC0E0916401E295EF70E695E3701E2F66
:1017C000A981BA81A1DFE03019F40E94750F2DC004
:1017D000A4E40E94FC0FE12FA2E1B8E00E947A0F7E
:1017E0000E9462120E94AC0FA981BA81AFDFE03083
:1017F00019F40E94750F19C00E94B60FE12FAAE1DB
:10180000B8E00E947A0F0E945E12A0916001B09130
:101810006101EA23FB230E94A5110E94F110A0E0C0
:10182000B0E080E89DE30E941F111881239608957F
:10183000AA93AB81BC8168DFE03011F4E0E072C0B4
:10184000E881E295E07FEE0FEF61E883AEE40E946D
:10185000FC0FA9810E94FC0FAA810E94FC0FA881A5
:101860000E94FC0FAB81BC8171DFE03011F4E0E03D
:1018700059C0A0916301EA81EA1751F4A091620175
:10188000E981EA1729F4A0916401E881EA1711F0CF
:10189000E0E048C0AB81BC8137DFE03011F4E0E02C
:1018A00041C0A8E40E94FC0FAFE00E942F0E0E94EE
:1018B000B60F38C0BA93AA931A930A93AA81BB8130
:1018C00012960E945A12309729F1AA81BB81149670
:1018D0000E945A128F01309761F00230E0E01E073B
:1018E000C0F0F80131978F01AA81BB811496ED9366
:1018F000FC93AA81BB8112960E943C0F3197AC8168
:10190000A083AA81BB810E945A12FF2312F00E9479
:101910003C0F06C0AA81BB81EFEFFFEFED93FC9374
:101920001981088125960895BA93AA9326970E9453
:101930007A1210E0AC85BD85E0E0F0E0ED93FC9319
:10194000EA89FB893196EA8BFB8B3197E4912E2F44
:10195000E03011F40C94C30DE12FE03039F425325E
:1019600011F411E002C00E94800F0CC1E130A9F413
:10197000253219F40E94800F04C112E040E000E01B
:101980002D3211F401E0FEC02B3211F44BE2FAC00B
:10199000203211F440E2F6C002C0E23039F450E0E7
:1019A00013E0203311F40068EDC004C0E33011F0FF
:1019B0000C94C20D203310F02A3308F007C0AAE0BF
:1019C0005A9F502DE22FE0535E0FDCC0E22FE3362A
:1019D00049F40E94870FE889F989A481AA930E949B
:1019E0008D0FCFC0E33741F40E94870F0E94930F01
:1019F0000E94FF0D1E2F0AC0E03761F40E94870F7E
:101A00000E94930F0E940B0E1E2F086002600F773A
:101A100030E035C0E43611F0E93611F4046002C05C
:101A2000E53731F4E2E2F8E0EE83FF8315E00DC024
:101A3000E83511F4086004C0E83711F00C94C10DCA
:101A4000ECE2F8E0EE83FF8314E002FF14C00E9492
:101A5000870F0E949D0FAB85AA233AF4EA85FB8588
:101A60000E949111EA87FB874DE2403011F01F5F21
:101A700001C00B7F04C00E94870F0E949D0F00FDD4
:101A800011C0151778F407FF08C002FF04C00B7FD0
:101A9000242F115001C020E301C020E20E94800FDA
:101AA0005150EFCF312F01FF17C03030A1F003FFAD
:101AB00006C0EE81FF812591EE83FF8305C0AE81D4
:101AC000BF812D91AE83BF830E94800F503009F0FB
:101AD00051503150EACF4BC020E3EE81FF810E948C
:101AE0005E12E887F987EE81FF813296EE83FF83ED
:101AF000E885F985AA85BB85AE17BF0750F02F5F33
:101B0000A885B985EA85FB85EA1BFB0BEA87FB877D
:101B1000EFCF2A3328F003FF02C0295F01C0295DFF
:101B200004FD1AC0213320F4A885B985119709F462
:101B300009C0531710F000FF01C013C020E207FFD7
:101B40000BC020E3006102FF07C00B7F4A930E9495
:101B50008D0F503009F051500E94800F503009F025
:101B600051503150A885B985129708F0B5CF00FFC4
:101B700008C0503031F05150E0E2EA930E948D0FDE
:101B8000F8CF10E0DDCEAC85BD850E945A120E94D0
:101B9000811264960895FF92F82E26970E947C1277
:101BA0000E94A50F309719F4EFEFFFEF23C0DE017D
:101BB00016960E948D118D010E94A50FEE83FF8362
:101BC000E0E0E887E987DE011A960E948D110E9405
:101BD0005A12FA93EA931A930A93EAE5FCE0FA930D
:101BE000EA93DE011A96A0DE9F01AE81BF81E0E09C
:101BF000EC93F9010E9483122A96FF900895BA93FC
:101C0000AA93A991B991EE27FF276D91662311F050
:101C10003196FBCF0895BA93AA93AA27BB27E991DF
:101C2000F9910590002011F01196FBCFFD01089568
:101C30001A930A93E0E8EA93A0E00E949A04E0E491
:101C4000EA93A0E00E949A0400E010E00895A7E75C
:101C5000B1E0A00FB11F0895A1E0B0E00895B0E099
:101C60000C94AC0FEA93A0E00C949A04AD81B0E020
:101C7000E8E0F0E00E94F9110895F0E0EA0FFB1FA0
:101C80000895E32FA1E00E949D110895E989EA9348
:101C9000E889EA93AC850C943205E885F985AF852F
:101CA000B889EA0FFB1FEF87F88B0895FA01A9891D
:101CB000BA89EA0FFB1FE98BFA8B0895AE81BF81C9
:101CC000EA0FFB1FEE83FF83E1CFEB85FC85FA93E0
:101CD000EA93E32FF0E00895AE1BBF0BBA93AA93EB
:101CE00008951196E32FF0E0F7CFE12FF0E0E759E8
:101CF000FE4F0895A12FB0E0AE17BF070895F4017D
:101D000031964F013197E958FE4F0895EF81F885DC
:101D1000A985BA850E94B411DF01E12FAECFBA9335
:101D2000AA93E881F9810895FA93EA93E0E0F0E05C
:101D3000FA93EA930895EA81EA93AA810E945206EF
:101D400010E008950E946F12EA1BFB0BD3CFBA93E9
:101D5000AA930E947C120895B0E00C94DB06E9E699
:101D6000F1E0FA93EA9308950E94A5110E946A1285
:101D700084E00E94CB0D289608950E94B806EFCF0C
:101D8000662777270E946A1284E00E94CB0D28966E
:101D90000895E4E6F0E060E070E00E94E111DF0108
:101DA000CB010895FA93EA93EAE0F0E0FA93EA931C
:101DB0000895E4E0F0E0FA93EA930895A9E0EA9F39
:101DC000F001EB58FC4FDF010E94CE0B0E94BA10CD
:101DD0000895E2E1F0E0FA93EA93ECE4F7E0089585
:101DE000FA93EA93A0E0B0E00895EA93A1E00C949E
:101DF0005206A0E0B0E00E947906DBCFE0919A03A2
:101E0000F0919B0360919C0370919D030E94BA1016
:101E100008950E944007A3CF0E946A1288E00E94A2
:101E2000CB0D2C960895FA93EA9380E00E94CB0D97
:101E300024960895EA93A5E0A0CFE5E8F8E0FA93A8
:101E4000EA93E09174030895F0E0A3E0B0E00E940B
:101E50006F12EA1BFB0B88CFA091A603B091A703DA
:101E6000E8EEF3E00895A0919A03B0919B0380916E
:101E70009C0390919D030895ED91FD913196FE9301
:101E8000EE9308950E942C0A66277727A8E4B8EEFF
:101E900081E090E00E94231208950A921A92FA9229
:101EA0006A937A938A939A93AA93BA93EA93FA934A
:101EB000EFB7EA93A0E008950A921A92FA926A9311
:101EC0007A938A939A93AA93BA93EA93FA93EFB781
:101ED000EA930895A0917403BB270E94FE07A0E037
:101EE0000E94E20ADF010C946B08E0E0FCE36CE185
:101EF00076EC0895F0E0EE0FFF1FEA0FFB1F089548
:101F00002A93AD85BE85EF85F88909950895E889FE
:101F1000F9893497E88BF98B0895AD85BE85EF85F7
:101F2000F88909950895A889B98914960E945A12CA
:101F3000EE83FF83AE81BF810895A889B989149685
:101F40000E945A12EA87FB870895DE011C960E94C0
:101F50008D110E945A120895109639F080ED97E085
:101F60000197F1F7A8951197C9F70895EE27A8985A
:101F7000A09A80EC93E00197F1F7A09885E28A950A
:101F8000F1F7989B08958BEC8A95F1F7989BE1E027
:101F90008CE093E00197F1F70895A09A85E08A9587
:101FA000F1F7A0988DE18A95F1F7889498990894B3
:101FB000E79585ED8A95F1F70895E894A09A85E074
:101FC0008A95F1F770FDA09883E28A95F1F79899C8
:101FD00003C070FF03C0089570FF089588EC8A95D0
:101FE000F1F7A0988DE08A95F1F76894089568E07C
:101FF000D4DF6A95E9F708957A2F68E0EE27DDDFF0
:1020000026F477956A95D9F7E39508954F935F93F2
:1020100011244427012C1124A9DFEE2301F1AF93F1
:10202000A881EADFAF9151E0501598F4B6DFE7FDE3
:1020300008C0B3DFE7FD06C03FD0892319F4152E91
:1020400001C0ABDF39D0892370E009F071E0B5DF62
:102050001EC0A3DFE7FF0BC0A0DFE7FF05C0E42F32
:102060005F914F9121960895689437D0EFCF95DF17
:10207000E7FF01C003C0501531F0152EE8942DD0B4
:1020800077279BDF04C0689428D071E096DF5395D2
:10209000513454F282DFEE1FEE1FE1701896EC937C
:1020A000189743951120D9F259E0EC911996EC93C9
:1020B00018975A95D1F7AECFE52FEA956E2FE69592
:1020C000E695E695FF27EA0FFB1F808191E0677098
:1020D00019F0990F6A95FCCF0895EEDF1EF09095E8
:1020E000892301C0892B80830895EE27AA2389F0D4
:1020F0008A2F68E1A881B98198E0FD917F2F7E2722
:10210000779508F4E627E795F6959A95B9F78A95B5
:1021100099F722960895552342F4503811F4E0FFC0
:1021200004C03196691F791F6BF050E8572711F4EE
:102130005F9373C05F3F31F0660F000C5795679552
:10214000752F08955F9300200AF073C06CC050E8AB
:10215000192E1522880F991F9527550F879550E83E
:10216000072E0522660F771F7527550F679508956F
:10217000689401C0E8945F93F2DF703818F07F3FF5
:1021800008F44BC056E1571BAAF4519558300EF491
:10219000593030F0EFEFFFEF6FEF7FE777F91AC0BC
:1021A00077275523B9F0EE0FFF1F661F771F5A954B
:1021B000D1F710C07727583028F0EF2FF62F672F70
:1021C0005850F9CF552331F076956795F795E795F7
:1021D0005A95D1F700200AF4A8D05F910895689429
:1021E00001C0E894309760407040B1F0002426F0C0
:1021F000772312F4009499D0172E7EE1112032F04B
:102200007A95EE0FFF1F661F111CF9CFEF2FF62FE7
:10221000612D5F938ADF5F910895EE27FF27662780
:1022200077275F910895EFEFFFEF6FE77FEF5F9103
:102230000895EFEFFFEF6FE77FE75F9108955F93FA
:1022400086DF703851F3903841F301240894791FE8
:1022500023F41CF300203AF3ECCF0F921F932F933B
:102260003F934F93112722279927689FA0018F9FA3
:10227000302D410D591F6B9F300D411D591F8E9FF1
:1022800027D0BF9F25D06A9F23D0BE9F1DD0AF9F70
:102290001BD0AE9F110D291F391F491F591FE32F56
:1022A000F42F652F522F4F913F912F911F910F9037
:1022B00066232AF0550FEE1FFF1F661F02C073959D
:1022C0004BF229DF5F910895100D211D391F02C0C7
:1022D000200D311D491F591F089599239AF0772326
:1022E00042F0971748F029F4AE17BF07860720F091
:1022F00031F09894889408959894089408951894C7
:10230000889408957723C2F7971798F3A9F7EA17E7
:10231000FB07680788F399F3ECCF0024AF0DB01DDD
:102320000895F195E195F0400895F09560957095C8
:10233000E195FF4F6F4F7F4F0895EE230E2EEA2F4A
:1023400019F0EE0F0A94E9F708956F2F660F660BE8
:10235000762F08958B2F880F880B982F0895EE23E2
:10236000E1E009F0EE270895FA9FF02DEB9FF00DC4
:10237000EA9FE02DF10D08957A9F702D6B9F700DEF
:10238000F89F700DE99F700D6A9F602D710DFB9F86
:10239000600D711DE89F600D711D8827FA9FF02D5B
:1023A000610D781FEB9FF00D611D781FEA9FE02DF6
:1023B000F10D681F781F08955CD0D6DF0EF4B1DFF1
:1023C000089565D0D9DF0EF4B0DF089500241124FC
:1023D00090E1AA0FBB1F001C111C0E1A1F0A18F453
:1023E0000E0E1F1E01C0A1609A9599F7FD01D00144
:1023F00008953FD0EBDF0EF494DF08953F934F93A1
:102400005F93002411244427552730E2AA0FBB1FF5
:10241000881F991F001C111C441F551F0E1A1F0AEC
:10242000460B570B28F40E0E1F1E461F571F01C0E8
:10243000A1603A9559F7FD01BC01D001CA015F9135
:102440004F913F91089523D0D9DF0EF46EDF0895A8
:10245000BDDFFD010895E894B7FF04C0A095B095D5
:1024600011966894F7FD5DDFB1DFFD010EF459DFD1
:102470000895E894F7FF02C054DF6894B7FF06C0E0
:10248000A095B095119600F8039400FA0895E89489
:1024900077FF02C04ADF689497FF0BC00024A09525
:1024A000B095809590951196801D901D00F803942D
:1024B00000FA0895ED91FC91119708950590F4911B
:1024C000E02D0895A591B4910895E883F9836A8376
:1024D0007B8308957A936A93FA93EA9308951B2E67
:1024E000BF2FF12D1A2EAE2FE12D089500240A16CC
:1024F0000B0608955A934A933A932A931A930A9390
:1025000008955D814C813B812A811981088108955C
:00000001FF
