:020000000C945E
:100002006B040C94F20A0C94F70A0C9400000C9402
:10001200390B0C9400000C9400000C9400000C941A
:100022001E0B0C94FA0A0C9400000C9400000C9421
:1000320000000C9400000C9400000C9400000C943E
:1000420000000C9400000C9400000C9400000C942E
:10005200000000000000000000000200013C4242DB
:10006200242492FF92240080E0203A231308646241
:1000720036495522500005030000001C22410000B1
:1000820041221C0014083E081408083E08080050CB
:10009200300000080808080800606000002010080E
:1000A2000402000000000000005F000000070007DB
:1000B20000147F147F14242A7F2A122313086462F7
:1000C20036495522500005030000001C2241000061
:1000D20041221C0014083E081408083E080800507B
:1000E20030000008080808080060600000201008BE
:1000F20004020000000000810000008100070007E8
:1001020000147F147F14242A7F2A122313086462A6
:1001120036495522500005030000001C2241000010
:1001220041221C0014083E081408083E080800502A
:10013200300000080808080800606000002010086D
:1001420004023E5149453E00427F4000426151490E
:10015200462141454B311814127F10274545453938
:100162003C4A494930017109050336494949360675
:100172004949291E00363600000056360000081490
:1001820022410014141414140041221408020151D3
:100192000906324979413E7E1111117E7F49494952
:1001A200363E414141227F4141221C7F494949411A
:1001B2007F090909013E4149497A7F0808087F0001
:1001C200417F41002040413F017F081422417F408E
:1001D2004040407F020C027F7F0408107F3E414175
:1001E200413E7F090909063E4151215E7F091929D5
:1001F20046464949493101017F01013F4040403FA4
:100202001F2040201F3F4038403F631408146307FB
:10021200087008076151494543007F4141000204CB
:100222000810200041417F000402010204404040C6
:100232004040000102040020545454787F48444452
:10024200383844444420384444487F38545454187D
:10025200087E0901020C5252523E7F0804047800C3
:10026200447D40002040443D007F1028440000416E
:100272007F40007C041804787C08040478384444E5
:1002820044387C14141408081414187C7C080404E0
:10029200084854545420043F4440203C4040207CB1
:1002A2001C2040201C3C4030403C44281028440C78
:1002B2005050503C4464544C440008364100000005
:1002C2007F000000413608001008081008784641F7
:1002D2004678000000000000005F000000070007F1
:1002E20000147F147F14242A7F2A122313086462C5
:1002F20036495522500005030000001C224100002F
:1003020041221C0014083E081408083E0808005048
:10031200300000080808080800606000002010088B
:100322000402000000000000005F00000007000758
:1003320000147F147F14242A7F2A12231308646274
:1003420036495522500005030000001C22410000DE
:1003520041221C0014083E081408083E08080050F8
:10036200300000080808080800606000002010083B
:100372000402000000000000005F00000007000708
:1003820000147F147F14242A7F2A12231308646224
:1003920036495522500005030000001C224100008E
:1003A20041221C0014083E081408083E08080050A8
:1003B20030000008080808080060600000201008EB
:1003C20004023E5149453E00427F4000426151498C
:1003D200462141454B311814127F102745454539B6
:1003E2003C4A4949300171090503364949493606F3
:1003F2004949291E0036360000005636000008140E
:100402002241001414141414004122140802015150
:1004120009067E1111117E7F494949317F494949B7
:10042200367F01010103702927217F7F4949494114
:1004320077087F087741414149767F1008047F7F22
:100442001009047F7F0814224120413F017F7F026F
:100452000C027F7F0808087F3E4141413E7F010137
:10046200017F7F090909063E4141412201017F01C5
:100472000147281008071E217F211E6314081463F8
:100482003F2020205F070808087F7F407F407F3F92
:10049200203F205F017F4848307F4830007F007F47
:1004A200484830414141493E7F083E413E46291974
:1004B200097F20545454783C4A4A49317C54542888
:1004C200007C0404040C722A26227E3854545418E8
:1004D2006C107C106C44445454387C2010087C7C92
:1004E2002112097C7C1028440020443C047C7C08B6
:1004F20010087C7C1010107C38444444387C04047E
:10050200047C7C14141408384444442004047C04FD
:1005120004442810080408147E14084428102844AF
:100522003C40407C400C1010107C7C407C407C3C69
:10053200203C207C047C5050207C5020007C007C9D
:1005420050502028444454387C103844384854349D
:10055200147C000000000000000000000000000009
:100562000000000000000000000000000000000089
:100572000000000000000000000000000000000079
:100582000000000000000000000000000000000069
:100592000000000000000000000000000000000059
:1005A20000000000000000FC040404FC0808000035
:1005B2000000000000000000000000000000000039
:1005C2000000000000000000000000000000000029
:1005D2000000000000000000000000000000000019
:1005E2000000000000000000000000000000000009
:1005F200000000FC0404FC20200000FF000000FFBB
:1006020002000000000000000000000000000000E6
:1006120000000000000000000000000000000000D8
:1006220000000000000000000000000000000000C8
:1006320000000000000000000000000000000000B8
:1006420000000000404040FF0000FF04040000FFE3
:10065200000000FF81010000000000000000000017
:100662000000000000000000000000000000000088
:100672000000000000000000000000000000000078
:100682000000000000000000000000000000000068
:100692000000000000000000101092FF0000FF00A8
:1006A2000000007F4040407F10100000000000006A
:1006B2000000000000000000000000000000000038
:1006C2000000000000000000000000000000000028
:1006D2000000000000000000000000000000000018
:1006E200000000000000000000000000040424FFDD
:1006F2000000FF00000080FFF9F9F9FF90223C00A2
:1007020000000000000000000000000000000000E7
:1007120000000000000000000000000000000000D7
:1007220000000000000000000000000000000000C7
:1007320000000000000000000000000000000000B7
:100742001C3E7FF781B7FD7F3E1CFFFFFFFFFFFFCF
:10075200FFFFFFFFFFFFFFFFFFFFFFFFFF81FD9195
:10076200FD81B9C5C5B98185FD8581DD81FF00FEA9
:10077200829393928282828292BB9382FE000000D5
:1007820000FF81DD81FF00492A1C7F1C2A490000ED
:100792000000000000000000000000000000000057
:1007A20000000000007E0418207E003C4242423CD1
:1007B200007E12324C007E0408047E00781412146B
:1007C20078007E4040400000000000000000000071
:1007D200007E08087E007A003C425234007E0808FF
:1007E2007E00005E0000000000000000000000002B
:1007F20000000000007E404040003C4242423C007B
:100802007E2010207E00005E00000000000000003C
:100812006400C80090012003F8FFFCFFFEFFFFFF09
:100822001027E80364000A00010000100001100014
:1008320001000000010002000000010002000300AC
:1008420004000500030302502533750025750025B9
:1008520033690200546865726D6F002532692E2576
:10086200695600566F6C746D657465720025336944
:10087200004B6D2F680053706565646F00C5E1E041
:10088200F8E8F23A00256900E4E0F2F7E8EAE0006D
:10089200EFF0EEE5E1E0EDEDEE3A0025692E256997
:1008A2000072706D2F6D00546163686F000001006B
:1008B200020034080100710336080100720338088F
:1008C200090090033A080100A4034408040004004C
:1008D20046080000F894EE27ECBBF1E0FBBFEBBF4B
:1008E200E5BFF8E1F1BDE1BD8DE0A2E0BB27ED93EC
:1008F2008A95E9F780E094E0A0E6ED930197E9F7A5
:10090200E0EBF8E085919591009761F0A591B591A2
:1009120005901590BF01F00105900D920197E1F746
:10092200FB01F0CFEFE5EDBFE4E0EEBFC0E6D1E0C2
:100932000C943A0BAA93C398E881E03011F0C29A62
:1009420001C0C298E981EFB9EEB1E078E038E1F791
:10095200C39A229608950E94190E083FE1E01E07ED
:100962004CF40E94280EEC91EA93A1E0E3DF0F5FC2
:100972001F4FF3CFF8C31A930A9300E010E0083F29
:10098200E1E01E073CF40E94280EE0E0EC930F5FCA
:100992001F4FF5CFE0DFE7C3C49ABF9ABD9ABB9A57
:1009A200BA9ABC9A0E942D0E0E94AD0FE0E5EDB9F5
:1009B200C498AAE00E94300EC49AC39AE1E20E944F
:1009C200330EE52DEC5F0E94330EE42DE05F0E94B2
:1009D200330EE72DE0580E94330EA0E020FCA1E088
:1009E200EA2FEE0FEE0FEE0FE0620E2EA0E021FCDA
:1009F200A1E0EA2FEE0FEE0FE0290E94330EE62D62
:100A0200EE0FE629E570E8600E94330EB4DF089528
:100A1200AA93A881A03850F4E1E20E94330EE88143
:100A2200E0680E94330EE0E20E94330E21960895A0
:100A3200BA93AA930E94190E083FE1E01E0778F4C8
:100A4200F801E958FE4F0F01F801AA81BB81EA0FB4
:100A5200FB1FE491D001EC930F5F1F4FEDCF198183
:100A6200088105C3AA930E947D12AE81A53590F537
:100A7200AD81A13378F50E94370EA4E5B0E00E9463
:100A8200DD11DF01EE810E943E0E8F010E94370EC2
:100A9200EE0FEE0FEE0FAD81AE1B3A2F0E94280E25
:100AA2002C91EC81E03029F40E94420EE0952E2335
:100AB2000DC0AC81A13021F40E94420E2E2B06C043
:100AC200AC81A23019F40E94420E2E27F801E95897
:100AD200FE4F20830E94841227960895AA9324979A
:100AE200E0E0E883E983EA83EB830E947B1200E083
:100AF20010E020E030E040E050E0A989BA89A53555
:100B0200E0E0BE0774F4AD85BE85A535E0E0BE0722
:100B120044F4AF85B889D19724F4AB85BC85D197CD
:100B22000CF072C0AF85B889EB85FC85EA1BFB0B24
:100B32008F01A989BA89ED85FE85EA1BFB0B9F010E
:100B420011233AF4F8010E9492118F01EFEFFFEFA7
:100B520002C0E1E0F0E0E887F98733233AF4F901D3
:100B62000E9492119F014FEF5FEF02C041E050E0FF
:100B7200000F111F220F331F0E94470E0217130787
:100B820014F5F901F595E795DF01F801EA1BFB0B76
:100B9200EE83FF83ED85FE85A989BA89EA17FB07F3
:100BA20089F0AF81AA2342F00E944E0EEE81FF81AE
:100BB200E21BF30BEE83FF830E94570EF8010E94A3
:100BC2005F0EE8CF21C0F801F595E795DF01F90145
:100BD200EA1BFB0BEE83FF83EB85FC85AF85B889AF
:100BE200EA17FB0789F0AF81AA2342F00E94570E51
:100BF200EE81FF81E01BF10BEE83FF830E944E0E1C
:100C0200F9010E945F0EE8CF0E9482126396089556
:100C1200AA930E947D12AC81A53608F03FC00C80D9
:100C22001124A985BA85ED81FE81EA1BFB0BD00157
:100C32000E94DD11DF01E4E6F0E00E94FA111E2FAE
:100C420030E0311780F40E94660EAF81B8850E94B1
:100C52006D0E0E94660EAB85BC850E946D0EA1E0F2
:100C62003DDF3F5FEECFA985ED81EA1B0E2F302FCE
:100C72001317A0F4EB85FC85FA93EA93AF81B8854C
:100C82000E94720EEB85FC85FA93EA93AB85BC85D4
:100C92000E94720EA0E022DF3150EACF0E9484123D
:100CA2002D960895AA93A981AF3018F4A881A73090
:100CB20008F012C0E881F0E03197A4E5B0E00E94AC
:100CC200DD11BF01E981F0E03197A6E0B0E00E94BA
:100CD200DD11E60FF71F4F015BC41A9310E01E30BF
:100CE20030F40E94760EA0E0A0831F5FF8CF199126
:100CF2000895BA93AA931A9310E0EF81F8850E949F
:100D02007B0ED8F40E94800EBF01EB81FC813097EC
:100D120049F00E94870EAD81BE81EA0FFB1FE4916C
:100D2200E09507C00E94870EAD81BE81EA0FFB1FCE
:100D3200E491DB01EC931F5FE0CFE981FA81309708
:100D420021F00E94800EA0E0A08318812B960895C6
:100D52000E94900EFA93EA93E5E0F0E0FA93EA93A8
:100D6200E4E5F0E00E94950E0E942D0EC2DF10C451
:100D7200AA931A93AA81AF3018F0A981A73008F478
:100D820003C01881239608950E949C0EEA81F0E028
:100D9200AFE0B0E00E94A30E64F40E94760EE08100
:100DA200E03029F00E94760EA081B0E0D1DF1F5F13
:100DB200EDCF93DF3AC50E94A80E00E030E020E0BC
:100DC20010E0153010F00C943807EC81FD81A5E09D
:100DD200B0E00E94DD11DF01E12F0E943E0EEC5ACD
:100DE200FF4F2491E22FE170A3E0EA02302DE22FBF
:100DF200E270A6E0EA02F0013E2BE22FE470ACE0E2
:100E0200EA02F0013E2BE22FE870A8E1EA02F001CB
:100E12003E2B22952F70E22FE170A3E0EA02002D13
:100E2200E22FE270A6E0EA02F0010E2BE22FE4705C
:100E3200ACE0EA02F0010E2BE22FE870A8E1EA0230
:100E4200F0010E2BF401E958FE4F3083F401E8580B
:100E5200FE4F3083F401E553FE4F0083F401E45367
:100E6200FE4F0083F40132964F011F5FAACF0E940A
:100E7200800EA0E0A0830E94800EA0E0A0838AC41E
:100E8200AA931A93AA81AE3018F0A981A63008F469
:100E920001C0CBC40E949C0EEA81F0E0AEE0B0E05B
:100EA2000E94A30E64F40E94760EE081E03029F0E5
:100EB2000E94760EA0810E94AD0E1F5FEDCF0DDF66
:100EC200B4C4BA93AA932897A885B985A739E0E054
:100ED200BE0724F0E6E9F0E0E887F987A985AA23AE
:100EE2001AF4E0E0E887E9870E94B00EEAE4F8E04D
:100EF200FA93EA93EC85FD850E94B50EECE0EA9345
:100F0200A1E00E94BE0EEEE4F8E0FA93EA93EE85C9
:100F1200FF850E94C10EE1E0EA93A1E029DFA885E6
:100F2200B9850E94AB110E94CA0EE6E9F0E060E0CA
:100F320070E00E9424120E94F210EC83FD836E8303
:100F42007F83EEE4F0E00E94D30EEFE4F0E0FA9348
:100F5200EA93E7E2F0E0FA93EA93EC85FD856E8589
:100F62007F850E94B910AE2F53DEAA85BB858827E4
:100F720099270E94CA0EE7E3F0E060E070E00E9469
:100F820024120E94F2100E946612E2E0F0E00E9437
:100F9200D30E0E94DA0EE5E2F0E0FA93EA93E885D6
:100FA200F9856A857B850E94B910AE2F31DE97C222
:100FB2001A930A93E0EFEA93A5E7B3E00E940710C1
:100FC200E093740300E010E0E0917403D801F0E0D4
:100FD200AE17BF0790F4A9E0A09FF001A19FF00D0A
:100FE200EB58FC4FFA93EA93E2EEEA93EDE7EA93C9
:100FF200A0E01ED40F5F1F4FE7CFB5C00E94900E36
:10100200E330A0E0FA0731F4E09172030E94DF0EB0
:101012006F0104C0E230A0E0FA0731F4E0917103FD
:101022000E94DF0E5F0104C0E130A0E0FA0779F40C
:10103200E0917303A9E0EA9FF001EB58FC4FDF0156
:10104200ADD3AFE6B3E00E94BB10ED93FC93A0C218
:10105200BA93AA93EA81FB81FA93EA930E94EA0E79
:10106200FA93EA93EE81FF810E94F10E42DE24960A
:101072000895E3E00E94F60E0E94DA0E0E94EA0E44
:101082000E94950E0E94FA0E0E94EA0E0E94950E90
:101092000E94FA0E0E94EA0E0E94950EA0E0B0E0B5
:1010A20028DE0895BA93AA93A881B981A436E0E014
:1010B200BE0724F0E3E6F0E0E883F983A881B98172
:1010C200AE3CEFEFBE0724F4EEECFFEFE883F983CA
:1010D200E881F9815DC20E94900E662777270E94FF
:1010E200F210ADE2B6E286E19EE30E942011E093A7
:1010F2009C03F0939D0360939E0370939F0348C2E9
:101102001A930A930E94FF0EE238A0E0FA0714F441
:1011120009E010E00E94FF0EE139A0E0FA0724F492
:10112200E238A0E0FA070CF402C005E010E00E94E9
:10113200FF0EE139A0E0FA0714F007E010E0E5E065
:10114200EA93A5E0AFDD1A930A930E942D0E80DF89
:10115200E8E0EA93A5E0A6DDF8013196FA93EA9376
:101162000E942D0E75DF0991199108950E94A80E13
:10117200EC81FD813097A1F5D60194DF8F01D50175
:1011820091DF9F01E3E0EA93A2E08CDDA3E00E94FD
:10119200AD0EE3E0EA93A4E085DDA4E00E94AD0E8B
:1011A2000E94B00EE1E5F8E0FA93EA93E0916F0352
:1011B200F09170030E94B50EE5E0EA93A2E00E946E
:1011C2000A0FE1E5F8E0FA93EA93F9010E94B50EFD
:1011D200E5E0EA93A4E00E940A0FE6E5F8E0B5C074
:1011E200E130A0E0FA0749F50E94B00EEDE5F8E023
:1011F200FA93EA930E94FF0EDF01EAE0F0E00E9418
:10120200FA110E94A6110E946B120E94FF0EDF01CA
:10121200EAE0F0E00E942C120E94A6110E940D0F3B
:10122200E3E0EA93A3E02CDE6BDF0E94B00EE5E67A
:10123200F8E00E94140FE3E08FC0E230A0E0FA076A
:10124200F1F40E94B00EEFE6F8E0FA93EA93E0912F
:10125200A603F091A7030E94C10EE4E0EA93A3E083
:101262000E940A0FE3E7F8E00E94140FE6E00E94F2
:101272001B0FE8E7F8E00E94140FE4E06DC0E330D2
:10128200A0E0FA07A9F50E94B00EEFE7F8E00E948D
:10129200140FE5E0EA93A2E00E94BE0E0E941E0F28
:1012A200FF27662777270E946B1284E00E94CC0DED
:1012B2002896E8E0EA93A3E00E94BE0EEAE8F8E08E
:1012C2000E94140FE5E0EA93A4E00E94BE0EE2E958
:1012D200F8E0FA93EA93E09174030E94250FE3E0A9
:1012E2000E941B0F0E941E0F0E94250FE8E034C0CF
:1012F200E430A0E0FA0799F50E94B00EEDE9F8E0BB
:10130200FA93EA930E942D0F0E94E711662777272E
:101312000E946B120E942D0F0E942912DF01E4E647
:10132200F0E00E94E711662777270E940D0FE5E0A3
:10133200EA93A3E00E940A0FE3EAF8E00E94140F86
:10134200E5E00E941B0FE9EAF8E0FA93EA9380E0F5
:101352000E94CC0D2496E5E0EA93A6E009DD1AC2CC
:101362000E94900EE0939A03F0939B0304DBA4E5A2
:10137200B5E05EDB0DC17DDEA0916F03B09170031D
:10138200A436E0E0BE0744F0E3E00E94F60EE1E09E
:10139200F0E00E94F10E5CDEE3E0F0E0EA15FB050E
:1013A20044F0E9E00E94F60EE3E0F0E00E94F10E64
:1013B2004FDE0E94340FE0E0F0E068EC72E40E943D
:1013C2006E1109F010F40C94EF090E94340FE0E062
:1013D200F0E064E173E40E946E1140F0E6E00E94E6
:1013E200F60EE2E0F0E00E94F10E32DE0895EBE24A
:1013F200F0E0FA93EA93A0916F03B091700361DD7C
:10140200A0919A03B0919B03B1DEB5DFA4DA0895EF
:10141200E091A203F091A303A0E9B3E0EE0FFF1F56
:10142200AE0FBF1F0E945B12DF019ADFA2EAB3E098
:101432000E943D0FE091A403F091A5033197A09182
:10144200A203B091A303EA17FB0728F4E0E0E093BC
:10145200A203E093A3030895BA93AA9322970E944A
:101462007B12F894ECB5F0E0EE83FF834DB555277F
:101472007894F42FE0E0AE81BF81EA0FFB1F9F0159
:10148200EA85FB853097D9F0AA85BB850E945B125D
:10149200AFEFBFEF0E94B5110F01A885B9850E9479
:1014A2005B12DF01F001EA1BFB0BE20FF31F8F015E
:1014B200AA85BB85E0E0F0E0ED93FC9309C0A88526
:1014C200B9850E945B12DF01F901EA1BFB0B8F0158
:1014D200A885B9852D933C93F8010E9482122C961F
:1014E20008950E94900E309739F0A091A603B09112
:1014F200A7030E94771208F005C0AAEAB3E00E948F
:101502003D0F46C0EAEAF3E0FA93EA93AEEAB3E0AB
:101512000E94430FA4E2B0E080E090E00E94E2115A
:10152200DF01CB01EAE0F0E060E070E00E9424120B
:10153200E093A603F093A7032BC00E94900E30976E
:1015420039F0A091A803B091A9030E94771208F084
:1015520005C0ACEAB3E00E943D0F1AC0ECEAF3E02A
:10156200FA93EA93A0EBB3E00E94430FACE3B0E03E
:1015720080E090E00E94E211DF01CB01E4E0F0E0C4
:1015820060E070E00E942412E093A803F093A903A4
:1015920022960895B69908C0A4E10E94300EA0EAEE
:1015A200B3E00E943D0F0DC0A091A003B091A10332
:1015B2000E94771230F42CDFE0E0E093A003E09386
:1015C200A1030895AA93E881E06CE7B98BE18A95BB
:1015D200F1F7369A349BFECF349AE4B1F5B12196F5
:1015E20008950E944E0FB0E07CDF34C00E944E0F7F
:1015F2002FC00E945D0FA4EBB3E00E943D0FA091AB
:10160200B403B091B5031F97B9F4E0E0E093B403DB
:10161200E093B503ECDEA2EBB3E00E943D0FA09194
:10162200B203B091B3031A9738F0E0E0E093B2034B
:10163200E093B3030E946B0F0DC00E945D0FA99B44
:1016420002C0A99801C0A99A0E942D0E4ADFA1E00A
:10165200B0E073DFE991EFBFF991E991B991A991F6
:101662009991899179916991F990199009901895B8
:101672001895E0E0EBBBEABBE8BBE0E4E7BBE0E0E7
:10168200E5BBE2E0E4BBE0E0E2BBE1BBE5E0E3BFF7
:10169200E0E0E2BFECBFEFBDE3E0EEBDE0E0EDBDB8
:1016A200ECBDE7BDE6BDEBBDEABDE9BDE8BDE2BD0F
:1016B200E4E0E5BDE0E0E4BDE3BDEBB7E06CEBBF29
:1016C200EEE0E5BFE0E0E4BFE0ECEABFE5E4E9BF5D
:1016D200E0E0EAB9E0E8E8B9E0E0E0BFE0ECE7B971
:1016E200E3E8E6B9E0E0EDB9E6BF0E94B70F54D9EE
:1016F200A3E28ED95DDC0E946B0FA4E0B0E030DE85
:10170200789448DFFECFFFCFBA93AA931A930E9430
:10171200B70FE03011F4E0E088C0E981FA81309738
:1017220081F0A5E50E94FD0F10E0A981BA81ED913B
:10173200A983BA83AE2F0E94FD0F1F5F1830A8F352
:1017420003C0ACEC0E94FD0FE1E06FC00E94A80E46
:10175200AC81BD81D9DFE03011F4E0E01BC0AEEB1B
:101762000E94FD0F10E020E631E03F932F932F5FA0
:101772003F4F0E94F80FAF91BF91EC931F5F19305A
:10178200A0F3E0E6F1E0FA93EA93A9E00E94761072
:101792000E94B0110E94841226960895BA93AA93C9
:1017A2001A93A981BA81D2DFE03019F40E94760F30
:1017B2003CC0E0916401E295EF70E695E3701E2F64
:1017C200A981BA81A1DFE03019F40E94760F2DC001
:1017D200A4E40E94FD0FE12FA2E1B8E00E947B0F7A
:1017E2000E9463120E94AD0FA981BA81AFDFE0307F
:1017F20019F40E94760F19C00E94B70FE12FAAE1D7
:10180200B8E00E947B0F0E945F12A0916001B0912C
:101812006101EA23FB230E94A6110E94F210A0E0BC
:10182200B0E080E89DE30E9420111881239608957C
:10183200AA93AB81BC8168DFE03011F4E0E072C0B2
:10184200E881E295E07FEE0FEF61E883AEE40E946B
:10185200FD0FA9810E94FD0FAA810E94FD0FA881A0
:101862000E94FD0FAB81BC8171DFE03011F4E0E03A
:1018720059C0A0916301EA81EA1751F4A091620173
:10188200E981EA1729F4A0916401E881EA1711F0CD
:10189200E0E048C0AB81BC8137DFE03011F4E0E02A
:1018A20041C0A8E40E94FD0FAFE00E94300E0E94EA
:1018B200B70F38C0BA93AA931A930A93AA81BB812D
:1018C20012960E945B12309729F1AA81BB8114966D
:1018D2000E945B128F01309761F00230E0E01E0738
:1018E200C0F0F80131978F01AA81BB811496ED9364
:1018F200FC93AA81BB8112960E943D0F3197AC8165
:10190200A083AA81BB810E945B12FF2312F00E9476
:101912003D0F06C0AA81BB81EFEFFFEFED93FC9371
:101922001981088125960895BA93AA9326970E9451
:101932007B1210E0AC85BD85E0E0F0E0ED93FC9316
:10194200EA89FB893196EA8BFB8B3197E4912E2F42
:10195200E03011F40C94C40DE12FE03039F425325B
:1019620011F411E002C00E94810F0CC1E130A9F410
:10197200253219F40E94810F04C112E040E000E018
:101982002D3211F401E0FEC02B3211F44BE2FAC009
:10199200203211F440E2F6C002C0E23039F450E0E5
:1019A20013E0203311F40068EDC004C0E33011F0FD
:1019B2000C94C30D203310F02A3308F007C0AAE0BC
:1019C2005A9F502DE22FE0535E0FDCC0E22FE33628
:1019D20049F40E94880FE889F989A481AA930E9498
:1019E2008E0FCFC0E33741F40E94880F0E94940FFC
:1019F2000E94000E1E2F0AC0E03761F40E94880F79
:101A02000E94940F0E940C0E1E2F086002600F7736
:101A120030E035C0E43611F0E93611F4046002C05A
:101A2200E53731F4E2E2F8E0EE83FF8315E00DC022
:101A3200E83511F4086004C0E83711F00C94C20DC7
:101A4200ECE2F8E0EE83FF8314E002FF14C00E9490
:101A5200880F0E949E0FAB85AA233AF4EA85FB8584
:101A62000E949211EA87FB874DE2403011F01F5F1E
:101A720001C00B7F04C00E94880F0E949E0F00FDD0
:101A820011C0151778F407FF08C002FF04C00B7FCE
:101A9200242F115001C020E301C020E20E94810FD7
:101AA2005150EFCF312F01FF17C03030A1F003FFAB
:101AB20006C0EE81FF812591EE83FF8305C0AE81D2
:101AC200BF812D91AE83BF830E94810F503009F0F8
:101AD20051503150EACF4BC020E3EE81FF810E948A
:101AE2005F12E887F987EE81FF813296EE83FF83EA
:101AF200E885F985AA85BB85AE17BF0750F02F5F31
:101B0200A885B985EA85FB85EA1BFB0BEA87FB877B
:101B1200EFCF2A3328F003FF02C0295F01C0295DFD
:101B220004FD1AC0213320F4A885B985119709F460
:101B320009C0531710F000FF01C013C020E207FFD5
:101B42000BC020E3006102FF07C00B7F4A930E9493
:101B52008E0F503009F051500E94810F503009F021
:101B620051503150A885B985129708F0B5CF00FFC2
:101B720008C0503031F05150E0E2EA930E948E0FDB
:101B8200F8CF10E0DDCEAC85BD850E945B120E94CD
:101B9200821264960895FF92F82E26970E947D1273
:101BA2000E94A60F309719F4EFEFFFEF23C0DE017A
:101BB20016960E948E118D010E94A60FEE83FF835E
:101BC200E0E0E887E987DE011A960E948E110E9402
:101BD2005B12FA93EA931A930A93EBE5FCE0FA9309
:101BE200EA93DE011A96A0DE9F01AE81BF81E0E09A
:101BF200EC93F9010E9484122A96FF900895BA93F9
:101C0200AA93A991B991EE27FF276D91662311F04E
:101C12003196FBCF0895BA93AA93AA27BB27E991DD
:101C2200F9910590002011F01196FBCFFD01089566
:101C32001A930A93E0E8EA93A0E00E949B04E0E48E
:101C4200EA93A0E00E949B0400E010E00895A7E759
:101C5200B1E0A00FB11F0895A1E0B0E00895B0E097
:101C62000C94AD0FEA93A0E00C949B04AD81B0E01C
:101C7200E8E0F0E00E94FA110895F0E0EA0FFB1F9D
:101C82000895E32FA1E00E949E110895E989EA9345
:101C9200E889EA93AC850C943305E885F985AF852C
:101CA200B889EA0FFB1FEF87F88B0895FA01A9891B
:101CB200BA89EA0FFB1FE98BFA8B0895AE81BF81C7
:101CC200EA0FFB1FEE83FF83E1CFEB85FC85FA93DE
:101CD200EA93E32FF0E00895AE1BBF0BBA93AA93E9
:101CE20008951196E32FF0E0F7CFE12FF0E0E759E6
:101CF200FE4F0895A12FB0E0AE17BF070895F4017B
:101D020031964F013197E958FE4F0895EF81F885DA
:101D1200A985BA850E94B511DF01E12FAECFBA9332
:101D2200AA93E881F9810895FA93EA93E0E0F0E05A
:101D3200FA93EA930895EA81EA93AA810E945306EC
:101D420010E008950E947012EA1BFB0BD3CFBA93E6
:101D5200AA930E947D120895B0E00C94DC06E9E695
:101D6200F1E0FA93EA9308950E94A6110E946B1281
:101D720084E00E94CC0D289608950E94B906EFCF08
:101D8200662777270E946B1284E00E94CC0D28966A
:101D92000895E4E6F0E060E070E00E94E211DF0105
:101DA200CB010895FA93EA93EAE0F0E0FA93EA931A
:101DB2000895E4E0F0E0FA93EA930895A9E0EA9F37
:101DC200F001EB58FC4FDF010E94CF0B0E94BB10C9
:101DD2000895E2E1F0E0FA93EA93ECE4F7E0089583
:101DE200FA93EA93A0E0B0E00895EA93A1E00C949C
:101DF2005306A0E0B0E00E947A06DBCFE0919C039C
:101E0200F0919D0360919E0370919F030E94BB100D
:101E120008950E944107A3CF0E946B1288E00E949E
:101E2200CC0D2C960895FA93EA9380E00E94CC0D93
:101E320024960895EA93A5E0A0CFE7E8F8E0FA93A4
:101E4200EA93E09174030895F0E0A3E0B0E00E9409
:101E52007012EA1BFB0B88CFA091A803B091A903D3
:101E6200E8EEF3E00895A0919C03B0919D03809168
:101E72009E0390919F030895ED91FD913196FE93FB
:101E8200EE9308950E942D0A66277727A8E4B8EEFC
:101E920081E090E00E94241208950A921A92FA9226
:101EA2006A937A938A939A93AA93BA93EA93FA9348
:101EB200EFB7EA93A0E008950A921A92FA926A930F
:101EC2007A938A939A93AA93BA93EA93FA93EFB77F
:101ED200EA930895A0917403BB270E94FF07A0E034
:101EE2000E94E30ADF010C946C08E0E0FCE36CE181
:101EF20076EC0895F0E0EE0FFF1FEA0FFB1F089546
:101F02002A93AD85BE85EF85F88909950895E889FC
:101F1200F9893497E88BF98B0895AD85BE85EF85F5
:101F2200F88909950895A889B98914960E945B12C7
:101F3200EE83FF83AE81BF810895A889B989149683
:101F42000E945B12EA87FB870895DE011C960E94BD
:101F52008E110E945B120895109639F080ED97E081
:101F62000197F1F7A8951197C9F70895EE27A89858
:101F7200A09A80EC93E00197F1F7A09885E28A9508
:101F8200F1F7989B08958BEC8A95F1F7989BE1E025
:101F92008CE093E00197F1F70895A09A85E08A9585
:101FA200F1F7A0988DE18A95F1F7889498990894B1
:101FB200E79585ED8A95F1F70895E894A09A85E072
:101FC2008A95F1F770FDA09883E28A95F1F79899C6
:101FD20003C070FF03C0089570FF089588EC8A95CE
:101FE200F1F7A0988DE08A95F1F76894089568E07A
:101FF200D4DF6A95E9F708957A2F68E0EE27DDDFEE
:1020020026F477956A95D9F7E39508954F935F93F0
:1020120011244427012C1124A9DFEE2301F1AF93EF
:10202200A881EADFAF9151E0501598F4B6DFE7FDE1
:1020320008C0B3DFE7FD06C03FD0892319F4152E8F
:1020420001C0ABDF39D0892370E009F071E0B5DF60
:102052001EC0A3DFE7FF0BC0A0DFE7FF05C0E42F30
:102062005F914F9121960895689437D0EFCF95DF15
:10207200E7FF01C003C0501531F0152EE8942DD0B2
:1020820077279BDF04C0689428D071E096DF5395D0
:10209200513454F282DFEE1FEE1FE1701896EC937A
:1020A200189743951120D9F259E0EC911996EC93C7
:1020B20018975A95D1F7AECFE52FEA956E2FE69590
:1020C200E695E695FF27EA0FFB1F808191E0677096
:1020D20019F0990F6A95FCCF0895EEDF1EF09095E6
:1020E200892301C0892B80830895EE27AA2389F0D2
:1020F2008A2F68E1A881B98198E0FD917F2F7E2720
:10210200779508F4E627E795F6959A95B9F78A95B3
:1021120099F722960895552342F4503811F4E0FFBE
:1021220004C03196691F791F6BF050E8572711F4EC
:102132005F9373C05F3F31F0660F000C5795679550
:10214200752F08955F9300200AF073C06CC050E8A9
:10215200192E1522880F991F9527550F879550E83C
:10216200072E0522660F771F7527550F679508956D
:10217200689401C0E8945F93F2DF703818F07F3FF3
:1021820008F44BC056E1571BAAF4519558300EF48F
:10219200593030F0EFEFFFEF6FEF7FE777F91AC0BA
:1021A20077275523B9F0EE0FFF1F661F771F5A9549
:1021B200D1F710C07727583028F0EF2FF62F672F6E
:1021C2005850F9CF552331F076956795F795E795F5
:1021D2005A95D1F700200AF4A8D05F910895689427
:1021E20001C0E894309760407040B1F0002426F0BE
:1021F200772312F4009499D0172E7EE1112032F049
:102202007A95EE0FFF1F661F111CF9CFEF2FF62FE5
:10221200612D5F938ADF5F910895EE27FF2766277E
:1022220077275F910895EFEFFFEF6FE77FEF5F9101
:102232000895EFEFFFEF6FE77FE75F9108955F93F8
:1022420086DF703851F3903841F301240894791FE6
:1022520023F41CF300203AF3ECCF0F921F932F9339
:102262003F934F93112722279927689FA0018F9FA1
:10227200302D410D591F6B9F300D411D591F8E9FEF
:1022820027D0BF9F25D06A9F23D0BE9F1DD0AF9F6E
:102292001BD0AE9F110D291F391F491F591FE32F54
:1022A200F42F652F522F4F913F912F911F910F9035
:1022B20066232AF0550FEE1FFF1F661F02C073959B
:1022C2004BF229DF5F910895100D211D391F02C0C5
:1022D200200D311D491F591F089599239AF0772324
:1022E20042F0971748F029F4AE17BF07860720F08F
:1022F20031F09894889408959894089408951894C5
:10230200889408957723C2F7971798F3A9F7EA17E5
:10231200FB07680788F399F3ECCF0024AF0DB01DDB
:102322000895F195E195F0400895F09560957095C6
:10233200E195FF4F6F4F7F4F0895EE230E2EEA2F48
:1023420019F0EE0F0A94E9F708956F2F660F660BE6
:10235200762F08958B2F880F880B982F0895EE23E0
:10236200E1E009F0EE270895FA9FF02DEB9FF00DC2
:10237200EA9FE02DF10D08957A9F702D6B9F700DED
:10238200F89F700DE99F700D6A9F602D710DFB9F84
:10239200600D711DE89F600D711D8827FA9FF02D59
:1023A200610D781FEB9FF00D611D781FEA9FE02DF4
:1023B200F10D681F781F08955CD0D6DF0EF4B1DFEF
:1023C200089565D0D9DF0EF4B0DF089500241124FA
:1023D20090E1AA0FBB1F001C111C0E1A1F0A18F451
:1023E2000E0E1F1E01C0A1609A9599F7FD01D00142
:1023F20008953FD0EBDF0EF494DF08953F934F939F
:102402005F93002411244427552730E2AA0FBB1FF3
:10241200881F991F001C111C441F551F0E1A1F0AEA
:10242200460B570B28F40E0E1F1E461F571F01C0E6
:10243200A1603A9559F7FD01BC01D001CA015F9133
:102442004F913F91089523D0D9DF0EF46EDF0895A6
:10245200BDDFFD010895E894B7FF04C0A095B095D3
:1024620011966894F7FD5DDFB1DFFD010EF459DFCF
:102472000895E894F7FF02C054DF6894B7FF06C0DE
:10248200A095B095119600F8039400FA0895E89487
:1024920077FF02C04ADF689497FF0BC00024A09523
:1024A200B095809590951196801D901D00F803942B
:1024B20000FA0895ED91FC91119708950590F49119
:1024C200E02D0895A591B4910895E883F9836A8374
:1024D2007B8308957A936A93FA93EA9308951B2E65
:1024E200BF2FF12D1A2EAE2FE12D089500240A16CA
:1024F2000B0608955A934A933A932A931A930A938E
:1025020008955D814C813B812A811981088108955A
:00000001FF
